{
  "contractName": "Betting",
  "abi": [
    {
      "inputs": [],
      "stateMutability": "nonpayable",
      "type": "constructor"
    },
    {
      "anonymous": false,
      "inputs": [
        {
          "indexed": true,
          "internalType": "address",
          "name": "bettor",
          "type": "address"
        },
        {
          "indexed": true,
          "internalType": "uint256",
          "name": "matchId",
          "type": "uint256"
        },
        {
          "indexed": false,
          "internalType": "string",
          "name": "team",
          "type": "string"
        },
        {
          "indexed": false,
          "internalType": "uint256",
          "name": "amount",
          "type": "uint256"
        }
      ],
      "name": "BetPlaced",
      "type": "event"
    },
    {
      "anonymous": false,
      "inputs": [
        {
          "indexed": true,
          "internalType": "uint256",
          "name": "matchId",
          "type": "uint256"
        },
        {
          "indexed": false,
          "internalType": "string",
          "name": "winningTeamId",
          "type": "string"
        }
      ],
      "name": "ResultSet",
      "type": "event"
    },
    {
      "anonymous": false,
      "inputs": [
        {
          "indexed": true,
          "internalType": "uint256",
          "name": "matchId",
          "type": "uint256"
        },
        {
          "indexed": true,
          "internalType": "address",
          "name": "winner",
          "type": "address"
        },
        {
          "indexed": false,
          "internalType": "uint256",
          "name": "amount",
          "type": "uint256"
        }
      ],
      "name": "Winner",
      "type": "event"
    },
    {
      "inputs": [
        {
          "internalType": "uint256",
          "name": "",
          "type": "uint256"
        },
        {
          "internalType": "address",
          "name": "",
          "type": "address"
        }
      ],
      "name": "Amount",
      "outputs": [
        {
          "internalType": "uint256",
          "name": "",
          "type": "uint256"
        }
      ],
      "stateMutability": "view",
      "type": "function",
      "constant": true
    },
    {
      "inputs": [
        {
          "internalType": "uint256",
          "name": "",
          "type": "uint256"
        }
      ],
      "name": "MatchAmount",
      "outputs": [
        {
          "internalType": "uint256",
          "name": "",
          "type": "uint256"
        }
      ],
      "stateMutability": "view",
      "type": "function",
      "constant": true
    },
    {
      "inputs": [],
      "name": "game",
      "outputs": [
        {
          "internalType": "uint256",
          "name": "",
          "type": "uint256"
        }
      ],
      "stateMutability": "view",
      "type": "function",
      "constant": true
    },
    {
      "inputs": [],
      "name": "minBet",
      "outputs": [
        {
          "internalType": "uint256",
          "name": "",
          "type": "uint256"
        }
      ],
      "stateMutability": "view",
      "type": "function",
      "constant": true
    },
    {
      "inputs": [],
      "name": "owner",
      "outputs": [
        {
          "internalType": "address",
          "name": "",
          "type": "address"
        }
      ],
      "stateMutability": "view",
      "type": "function",
      "constant": true
    },
    {
      "inputs": [
        {
          "internalType": "uint256",
          "name": "",
          "type": "uint256"
        }
      ],
      "name": "players",
      "outputs": [
        {
          "internalType": "address payable",
          "name": "",
          "type": "address"
        }
      ],
      "stateMutability": "view",
      "type": "function",
      "constant": true
    },
    {
      "inputs": [
        {
          "internalType": "uint256",
          "name": "",
          "type": "uint256"
        }
      ],
      "name": "result",
      "outputs": [
        {
          "internalType": "string",
          "name": "",
          "type": "string"
        }
      ],
      "stateMutability": "view",
      "type": "function",
      "constant": true
    },
    {
      "inputs": [
        {
          "internalType": "uint256",
          "name": "matchID",
          "type": "uint256"
        },
        {
          "internalType": "string",
          "name": "predict",
          "type": "string"
        }
      ],
      "name": "bet",
      "outputs": [],
      "stateMutability": "payable",
      "type": "function",
      "payable": true
    },
    {
      "inputs": [
        {
          "internalType": "uint256",
          "name": "_matchId",
          "type": "uint256"
        },
        {
          "internalType": "string",
          "name": "Finalresult",
          "type": "string"
        }
      ],
      "name": "Distribute",
      "outputs": [],
      "stateMutability": "payable",
      "type": "function",
      "payable": true
    },
    {
      "inputs": [
        {
          "internalType": "uint256",
          "name": "_matchId",
          "type": "uint256"
        },
        {
          "internalType": "string",
          "name": "_team",
          "type": "string"
        }
      ],
      "name": "getPredictions",
      "outputs": [
        {
          "internalType": "address[]",
          "name": "",
          "type": "address[]"
        }
      ],
      "stateMutability": "view",
      "type": "function",
      "constant": true
    },
    {
      "inputs": [],
      "name": "checkBalance",
      "outputs": [
        {
          "internalType": "uint256",
          "name": "",
          "type": "uint256"
        }
      ],
      "stateMutability": "view",
      "type": "function",
      "constant": true
    },
    {
      "inputs": [
        {
          "internalType": "uint256",
          "name": "_matchId",
          "type": "uint256"
        },
        {
          "internalType": "string",
          "name": "_team",
          "type": "string"
        }
      ],
      "name": "getPredictionNumber",
      "outputs": [
        {
          "internalType": "uint256",
          "name": "",
          "type": "uint256"
        }
      ],
      "stateMutability": "view",
      "type": "function",
      "constant": true
    },
    {
      "inputs": [
        {
          "internalType": "uint256",
          "name": "_matchId",
          "type": "uint256"
        }
      ],
      "name": "getResult",
      "outputs": [
        {
          "internalType": "string",
          "name": "",
          "type": "string"
        }
      ],
      "stateMutability": "view",
      "type": "function",
      "constant": true
    },
    {
      "inputs": [],
      "name": "playerBalance",
      "outputs": [
        {
          "internalType": "uint256",
          "name": "",
          "type": "uint256"
        }
      ],
      "stateMutability": "view",
      "type": "function",
      "constant": true
    },
    {
      "inputs": [],
      "name": "getCurrentGame",
      "outputs": [
        {
          "internalType": "uint256",
          "name": "",
          "type": "uint256"
        }
      ],
      "stateMutability": "view",
      "type": "function",
      "constant": true
    },
    {
      "inputs": [
        {
          "internalType": "uint256",
          "name": "matchID",
          "type": "uint256"
        }
      ],
      "name": "getMatchAmount",
      "outputs": [
        {
          "internalType": "uint256",
          "name": "",
          "type": "uint256"
        }
      ],
      "stateMutability": "view",
      "type": "function",
      "constant": true
    }
  ],
  "bytecode": "0x60806040526001600255662386f26fc100006003556004805534801561002457600080fd5b50336000806101000a81548173ffffffffffffffffffffffffffffffffffffffff021916908373ffffffffffffffffffffffffffffffffffffffff160217905550611675806100746000396000f3fe6080604052600436106100f35760003560e01c8063995e43391161008a578063c71daccb11610059578063c71daccb14610338578063ea6579dc14610363578063f68a670e146103a0578063f71d96cb146103dd576100f3565b8063995e433914610256578063aa278b5914610293578063bbbd06b0146102d0578063c3fe3e281461030d576100f3565b80638da5cb5b116100c65780638da5cb5b146101b9578063915eb32f146101e45780639619367d14610200578063968d901b1461022b576100f3565b80633c594059146100f8578063651f066a146101355780636ec18782146101605780637d4a45291461017c575b600080fd5b34801561010457600080fd5b5061011f600480360381019061011a9190610ddb565b61041a565b60405161012c9190610ea1565b60405180910390f35b34801561014157600080fd5b5061014a6104ba565b6040516101579190610ed2565b60405180910390f35b61017a60048036038101906101759190611022565b6104ec565b005b34801561018857600080fd5b506101a3600480360381019061019e91906110dc565b61077c565b6040516101b09190610ed2565b60405180910390f35b3480156101c557600080fd5b506101ce6107a1565b6040516101db919061112b565b60405180910390f35b6101fe60048036038101906101f99190611022565b6107c5565b005b34801561020c57600080fd5b50610215610a63565b6040516102229190610ed2565b60405180910390f35b34801561023757600080fd5b50610240610a69565b60405161024d9190610ed2565b60405180910390f35b34801561026257600080fd5b5061027d60048036038101906102789190610ddb565b610a73565b60405161028a9190610ea1565b60405180910390f35b34801561029f57600080fd5b506102ba60048036038101906102b59190611022565b610b18565b6040516102c79190611204565b60405180910390f35b3480156102dc57600080fd5b506102f760048036038101906102f29190610ddb565b610bd6565b6040516103049190610ed2565b60405180910390f35b34801561031957600080fd5b50610322610bee565b60405161032f9190610ed2565b60405180910390f35b34801561034457600080fd5b5061034d610bf4565b60405161035a9190610ed2565b60405180910390f35b34801561036f57600080fd5b5061038a60048036038101906103859190610ddb565b610c55565b6040516103979190610ed2565b60405180910390f35b3480156103ac57600080fd5b506103c760048036038101906103c29190611022565b610c72565b6040516103d49190610ed2565b60405180910390f35b3480156103e957600080fd5b5061040460048036038101906103ff9190610ddb565b610caf565b6040516104119190611247565b60405180910390f35b6008602052806000526040600020600091509050805461043990611291565b80601f016020809104026020016040519081016040528092919081815260200182805461046590611291565b80156104b25780601f10610487576101008083540402835291602001916104b2565b820191906000526020600020905b81548152906001019060200180831161049557829003601f168201915b505050505081565b6000670de0b6b3a76400003373ffffffffffffffffffffffffffffffffffffffff16316104e79190611320565b905090565b60008054906101000a900473ffffffffffffffffffffffffffffffffffffffff1673ffffffffffffffffffffffffffffffffffffffff163373ffffffffffffffffffffffffffffffffffffffff161461054457600080fd5b6002548214610588576040517f08c379a000000000000000000000000000000000000000000000000000000000815260040161057f9061139d565b60405180910390fd5b806008600084815260200190815260200160002090805190602001906105af929190610cee565b50817fb8393fab733a1aacbab904d1512e8dd84889050a71e2c45bd2d0ca4c7ce082c5826040516105e09190610ea1565b60405180910390a260006004546007600085815260200190815260200160002054600361060d91906113bd565b6106179190611320565b90506000600560008581526020019081526020016000208360405161063c9190611453565b90815260200160405180910390208054806020026020016040519081016040528092919081815260200182805480156106ca57602002820191906000526020600020905b8160009054906101000a900473ffffffffffffffffffffffffffffffffffffffff1673ffffffffffffffffffffffffffffffffffffffff1681526020019060010190808311610680575b5050505050905060005b815181101561075d578181815181106106f0576106ef61146a565b5b602002602001015173ffffffffffffffffffffffffffffffffffffffff166108fc83518561071e9190611320565b9081150290604051600060405180830381858888f19350505050158015610749573d6000803e3d6000fd5b50808061075590611499565b9150506106d4565b506002600081548092919061077190611499565b919050555050505050565b6006602052816000526040600020602052806000526040600020600091509150505481565b60008054906101000a900473ffffffffffffffffffffffffffffffffffffffff1681565b6003543411610809576040517f08c379a00000000000000000000000000000000000000000000000000000000081526004016108009061152d565b60405180910390fd5b60006006600084815260200190815260200160002060003373ffffffffffffffffffffffffffffffffffffffff1673ffffffffffffffffffffffffffffffffffffffff168152602001908152602001600020541461089c576040517f08c379a000000000000000000000000000000000000000000000000000000000815260040161089390611599565b60405180910390fd5b6001339080600181540180825580915050600190039060005260206000200160009091909190916101000a81548173ffffffffffffffffffffffffffffffffffffffff021916908373ffffffffffffffffffffffffffffffffffffffff16021790555060056000838152602001908152602001600020816040516109209190611453565b9081526020016040518091039020339080600181540180825580915050600190039060005260206000200160009091909190916101000a81548173ffffffffffffffffffffffffffffffffffffffff021916908373ffffffffffffffffffffffffffffffffffffffff160217905550346006600084815260200190815260200160002060003373ffffffffffffffffffffffffffffffffffffffff1673ffffffffffffffffffffffffffffffffffffffff1681526020019081526020016000208190555034600760008481526020019081526020016000206000828254610a0791906115b9565b92505081905550813373ffffffffffffffffffffffffffffffffffffffff167f02337a2de26093979fec9e25c4d2c7b6a8bd0c2fd9b3214ded831ac4f3d391e78334604051610a5792919061160f565b60405180910390a35050565b60035481565b6000600254905090565b6060600860008381526020019081526020016000208054610a9390611291565b80601f0160208091040260200160405190810160405280929190818152602001828054610abf90611291565b8015610b0c5780601f10610ae157610100808354040283529160200191610b0c565b820191906000526020600020905b815481529060010190602001808311610aef57829003601f168201915b50505050509050919050565b60606005600084815260200190815260200160002082604051610b3b9190611453565b9081526020016040518091039020805480602002602001604051908101604052809291908181526020018280548015610bc957602002820191906000526020600020905b8160009054906101000a900473ffffffffffffffffffffffffffffffffffffffff1673ffffffffffffffffffffffffffffffffffffffff1681526020019060010190808311610b7f575b5050505050905092915050565b60076020528060005260406000206000915090505481565b60025481565b60008060009054906101000a900473ffffffffffffffffffffffffffffffffffffffff1673ffffffffffffffffffffffffffffffffffffffff163373ffffffffffffffffffffffffffffffffffffffff1614610c4f57600080fd5b47905090565b600060076000838152602001908152602001600020549050919050565b60006005600084815260200190815260200160002082604051610c959190611453565b908152602001604051809103902080549050905092915050565b60018181548110610cbf57600080fd5b906000526020600020016000915054906101000a900473ffffffffffffffffffffffffffffffffffffffff1681565b828054610cfa90611291565b90600052602060002090601f016020900481019282610d1c5760008555610d63565b82601f10610d3557805160ff1916838001178555610d63565b82800160010185558215610d63579182015b82811115610d62578251825591602001919060010190610d47565b5b509050610d709190610d74565b5090565b5b80821115610d8d576000816000905550600101610d75565b5090565b6000604051905090565b600080fd5b600080fd5b6000819050919050565b610db881610da5565b8114610dc357600080fd5b50565b600081359050610dd581610daf565b92915050565b600060208284031215610df157610df0610d9b565b5b6000610dff84828501610dc6565b91505092915050565b600081519050919050565b600082825260208201905092915050565b60005b83811015610e42578082015181840152602081019050610e27565b83811115610e51576000848401525b50505050565b6000601f19601f8301169050919050565b6000610e7382610e08565b610e7d8185610e13565b9350610e8d818560208601610e24565b610e9681610e57565b840191505092915050565b60006020820190508181036000830152610ebb8184610e68565b905092915050565b610ecc81610da5565b82525050565b6000602082019050610ee76000830184610ec3565b92915050565b600080fd5b600080fd5b7f4e487b7100000000000000000000000000000000000000000000000000000000600052604160045260246000fd5b610f2f82610e57565b810181811067ffffffffffffffff82111715610f4e57610f4d610ef7565b5b80604052505050565b6000610f61610d91565b9050610f6d8282610f26565b919050565b600067ffffffffffffffff821115610f8d57610f8c610ef7565b5b610f9682610e57565b9050602081019050919050565b82818337600083830152505050565b6000610fc5610fc084610f72565b610f57565b905082815260208101848484011115610fe157610fe0610ef2565b5b610fec848285610fa3565b509392505050565b600082601f83011261100957611008610eed565b5b8135611019848260208601610fb2565b91505092915050565b6000806040838503121561103957611038610d9b565b5b600061104785828601610dc6565b925050602083013567ffffffffffffffff81111561106857611067610da0565b5b61107485828601610ff4565b9150509250929050565b600073ffffffffffffffffffffffffffffffffffffffff82169050919050565b60006110a98261107e565b9050919050565b6110b98161109e565b81146110c457600080fd5b50565b6000813590506110d6816110b0565b92915050565b600080604083850312156110f3576110f2610d9b565b5b600061110185828601610dc6565b9250506020611112858286016110c7565b9150509250929050565b6111258161109e565b82525050565b6000602082019050611140600083018461111c565b92915050565b600081519050919050565b600082825260208201905092915050565b6000819050602082019050919050565b61117b8161109e565b82525050565b600061118d8383611172565b60208301905092915050565b6000602082019050919050565b60006111b182611146565b6111bb8185611151565b93506111c683611162565b8060005b838110156111f75781516111de8882611181565b97506111e983611199565b9250506001810190506111ca565b5085935050505092915050565b6000602082019050818103600083015261121e81846111a6565b905092915050565b60006112318261107e565b9050919050565b61124181611226565b82525050565b600060208201905061125c6000830184611238565b92915050565b7f4e487b7100000000000000000000000000000000000000000000000000000000600052602260045260246000fd5b600060028204905060018216806112a957607f821691505b6020821081036112bc576112bb611262565b5b50919050565b7f4e487b7100000000000000000000000000000000000000000000000000000000600052601260045260246000fd5b7f4e487b7100000000000000000000000000000000000000000000000000000000600052601160045260246000fd5b600061132b82610da5565b915061133683610da5565b925082611346576113456112c2565b5b828204905092915050565b7f44697374726962757465206f6e6c7920666f722063757272656e742067616d65600082015250565b6000611387602083610e13565b915061139282611351565b602082019050919050565b600060208201905081810360008301526113b68161137a565b9050919050565b60006113c882610da5565b91506113d383610da5565b9250817fffffffffffffffffffffffffffffffffffffffffffffffffffffffffffffffff048311821515161561140c5761140b6112f1565b5b828202905092915050565b600081905092915050565b600061142d82610e08565b6114378185611417565b9350611447818560208601610e24565b80840191505092915050565b600061145f8284611422565b915081905092915050565b7f4e487b7100000000000000000000000000000000000000000000000000000000600052603260045260246000fd5b60006114a482610da5565b91507fffffffffffffffffffffffffffffffffffffffffffffffffffffffffffffffff82036114d6576114d56112f1565b5b600182019050919050565b7f42657420697320746f6f20736d616c6c00000000000000000000000000000000600082015250565b6000611517601083610e13565b9150611522826114e1565b602082019050919050565b600060208201905081810360008301526115468161150a565b9050919050565b7f506c6163656420612062657420616c7265616479000000000000000000000000600082015250565b6000611583601483610e13565b915061158e8261154d565b602082019050919050565b600060208201905081810360008301526115b281611576565b9050919050565b60006115c482610da5565b91506115cf83610da5565b9250827fffffffffffffffffffffffffffffffffffffffffffffffffffffffffffffffff03821115611604576116036112f1565b5b828201905092915050565b600060408201905081810360008301526116298185610e68565b90506116386020830184610ec3565b939250505056fea2646970667358221220025b7aa1a0d123e389a3d2ff425ae3e2385a67c6378c46e1e4959eb5fa9a276864736f6c634300080e0033",
  "immutableReferences": {},
  "source": "// SPDX-License-Identifier: MIT\npragma solidity ^0.8.0;\n\ncontract Betting{\n\n    address public owner;\n    address payable[] public players;\n\n    constructor() {\n        owner = msg.sender;\n    }\n\n    uint public game = 1;\n    uint public minBet = 0.01 ether;\n    uint private commission = 4; \n\n    function bet(uint matchID, string memory predict) public payable{\n        //require((timestamp < block.timestamp), \"Too late to place bet\");\n        require((msg.value > minBet), \"Bet is too small\");\n        require((Amount[matchID][msg.sender] == 0), \"Placed a bet already\");\n\n        players.push(payable(msg.sender));\n\n        prediction[matchID][predict].push(msg.sender);\n        Amount[matchID][msg.sender] = (msg.value);\n        MatchAmount[matchID] += msg.value;\n        emit BetPlaced(msg.sender, matchID, predict,msg.value);\n    }\n    //win and lose mappings\n    mapping(uint=> mapping(string => address[])) prediction;\n    mapping(uint=>mapping(address=> uint)) public Amount;\n    mapping(uint=>uint) public MatchAmount;\n    mapping(uint=>string) public result;\n\n    event Winner(uint indexed matchId, address indexed winner, uint amount);\n    event BetPlaced(address indexed bettor, uint indexed matchId, string team, uint amount);\n    event ResultSet(uint indexed matchId, string winningTeamId);\n\n\n    function Distribute(uint _matchId, string memory Finalresult) public payable onlyOwner{\n        require((_matchId == game), \"Distribute only for current game\");\n        result[_matchId] = Finalresult;\n        emit ResultSet(_matchId, Finalresult);\n        uint toDistribute = 3 * MatchAmount[_matchId] / commission;\n        address [] memory winners = prediction[_matchId][Finalresult];\n        for(uint i = 0; i<winners.length; i++){\n            payable(winners[i]).transfer(toDistribute/winners.length);\n        }\n        game++;\n    }\n\n    function getPredictions(uint _matchId, string memory _team) public view returns (address[] memory) {\n        return prediction[_matchId][_team];\n    }\n\n    function checkBalance() public view onlyOwner returns (uint256 ){\n        return address(this).balance;\n    }\n\n    function getPredictionNumber(uint _matchId, string memory _team) public view returns (uint) {\n        return prediction[_matchId][_team].length;\n    }\n\n    function getResult(uint _matchId) public view returns (string memory) {\n        return result[_matchId];\n    }\n\n    function playerBalance() public view returns (uint) {\n        return msg.sender.balance/(1 ether);\n    }\n\n    function getCurrentGame() public view returns (uint) {\n        return game;\n    }\n\n    function getMatchAmount(uint matchID) public view returns (uint) {\n        return MatchAmount[matchID];\n    }\n\n    modifier onlyOwner{\n        require((msg.sender == owner));\n        _;\n    }\n}",
  "sourcePath": "/home/tejas/Desktop/Dev/Blockchain/Project/backend/contracts/Betting.sol",
  "compiler": {
    "name": "solc",
    "version": "0.8.14+commit.80d49f37.Emscripten.clang"
  },
  "schemaVersion": "3.4.7",
  "updatedAt": "2022-07-12T14:02:55.516Z",
  "networkType": "ethereum",
  "devdoc": {
    "kind": "dev",
    "methods": {},
    "version": 1
  },
  "userdoc": {
    "kind": "user",
    "methods": {},
    "version": 1
  }
}